S01C0000636F6E766565725F6F7074696D69736174696F6E2E7372656397
S11300001CC036C035C034C001C232C031C030C09B
S11300102FC02EC02DC02CC02BC02AC029C028C080
S113002027C026C025C04BC03AC04DC03AC03BC013
S11300303CC03DC03EC03FC040C011241FBECFE500
S1130040D4E0DEBFCDBF10E0A0E6B0E0E4EAF7E024
S113005002C005900D92A836B107D9F720E0A8E6B2
S1130060B0E001C01D92A737B207E1F77CD398C373
S1130070C7CFBC01F89440E076C08091600088232B
S113008009F44EC0FB01E40FF11DE0818E2F90E0D6
S11300908A309105B0F4FC01ED5EFF4F099436E01F
S11300A013C03FE411C036E60FC03DE60DC03DE786
S11300B00BC037E009C03FE707C03FE605C03FE398
S11300C003C030E001C03BE54130A1F028F04330EB
S11300D009F14430C9F031C080917400882369F17A
S11300E080917000811104C080916F00882329F1F0
S11300F0306823C0809174008823F9F080916F00E8
S11301008823D9F0306819C0809176008823A9F03B
S1130110306813C080917500882379F030680DC071
S1130120433031F0423031F0413031F431E705C031
S11301303FE303C031E701C030E020E011C03323C6
S113014024F492B3906492BB03C092B39F7B92BB9E
S1130150330F98B3916098BB98B39E7F98BB2F5F81
S1130160283068F34F5F463008F487CF82B3806845
S113017082BB82B38F7782BB78940895FC0180910F
S11301806E00823021F480917400811111C020919D
S113019071009DEC299F912D112496959695969525
S11301A0990F892F880F880F980F291B922F01C050
S11301B09BE0908380916E00823021F490917400D2
S11301C091110AC0909171002DEC929F912D1124F0
S11301D096959695969501C09BE09183833021F482
S11301E090917400911111C0309170009DEC399F71
S11301F0912D1124969596959695990F292F220F56
S1130200220F920F391B932F01C09BE092838330FE
S113021021F49091740091110AC0909170002DEC1A
S1130220929F912D112496959695969501C09BE0E9
S11302309383843021F490917400911111C0309112
S11302406F009DEC399F912D112496959695969566
S1130250990F292F220F220F920F391B932F01C0C0
S11302609BE09483843021F48091740081110AC04E
S113027080916F009DEC899F812D11248695869530
S1130280869501C08BE0858380917300811105C040
S113029008958BE08C93915001C095E0992331F03F
S11302A0DF01A90FB11D8C918111F3CF0895E1995C
S11302B0FECF9FBB8EBB6DBB8CB384608CBB8CB3F9
S11302C082608CBB0895E199FECF9FBB8EBB8CB33B
S11302D081608CBB8DB30895CF9381E090E0F3DF10
S11302E0CDEC8C9F912D1124969596959695990F0A
S11302F0292F220F220F920F891B8093710082E015
S113030090E0E1DF8C9F912D11249695969596951A
S1130310990F292F220F220F920F891B80937000AF
S113032083E090E0D0DF8C9F912D112496959695D3
S11303309695990F292F220F220F920F891B982F20
S113034080936F0080917000811102C0992321F085
S113035081E08093720002C010927200CF910895E0
S113036015BC85B5846085BD82B5886082BD89B7BA
S1130370806489BF089581B3806481BB82B38F7B1D
S113038082BB87B3816087BB88B38E7F88BB81B310
S1130390806881BB82B38F7782BB87B3826087BB5F
S11303A088B3826088BB81B3806281BB82B38F7D56
S11303B082BB20E030E008C088B3816088BB88B38A
S11303C08E7F88BB2F5F3F4F22333105ACF382B35E
S11303D0806882BB82B38F7782BB84B38B7F84BBFC
S11303E084B3877F84BB84B38F7E84BB84B38F7DC7
S11303F084BB85B3846085BB85B3886085BB85B3C6
S1130400806185BB85B3806285BB08951F920F927E
S11304100FB60F9211242F933F934F935F936F93D3
S11304207F938F939F93AF93BF93EF93FF938091A9
S11304306000882309F45EC09091740081E08927EC
S11304408093740080917300882309F458C08091CC
S11304507000811114C090916F00911110C090919F
S113046071009A3061F490917200992341F0909157
S11304707500911104C091E0909375000CC0811136
S11304800AC090916F00911106C09091710096304E
S113049010F410927500811123C080916F008111B6
S11304A01FC08091710081111BC080916D0081116A
S11304B004C081E0809376000DC0833019F410925B
S11304C0760008C08D3230F007DF10926D0081E0B5
S11304D08093740080916D008F5F80936D000FC0D6
S11304E080917400882359F0809171008150809329
S11304F0710005C080917600811110927600FF9101
S1130500EF91BF91AF919F918F917F916F915F9187
S11305104F913F912F910F900FBE0F901F90189500
S11305202091600083B382958695877091E0892736
S113053081702817E1F080916B0090916C008835F0
S113054022E0920730F4019690936C0080936B0044
S113055019C083B382958695877091E0892781704D
S11305608093600010926C0010926B000BC080911D
S11305706B0090916C00009729F0019790936C00A8
S113058080936B008091690090916A00009711F448
S11305901092680020916800211111C09C9904C038
S11305A023E0209368000BC09B9904C022E02093B1
S11305B0680005C09A9903C021E0209368009C99C3
S11305C004C020916800233061F09B9904C02091FD
S11305D06800223031F09A9916C0209168002130C9
S11305E091F4893522E0920738F010926A00109253
S11305F06900809168000895019690936A00809341
S1130600690080E00895009739F0019790936A009B
S11306108093690080E0089580E0089590917300CC
S1130620992389F0813011F4109273008091750040
S113063081111092750080917600882309F492C08C
S11306401092760008958130D9F480916E00823042
S113065031F480917100815080937100089583304A
S113066031F480917000815080937000089584303B
S113067009F078C080916F00815080936F000895D5
S1130680823091F580916E00811106C081E08093E3
S11306907300809374000895823059F4809171003E
S11306A08F5F809371008C3308F45CC010927100EA
S11306B00895833059F4809170008F5F80937000A7
S11306C08C3308F44FC0109270000895843009F000
S11306D049C080916F008F5F80936F00883108F468
S11306E041C010926F0008958330E1F580916E004F
S11306F08F5F80936E00813029F4EEDD82E0809379
S11307006E000895853071F5F89480917000811120
S113071004C090916F00992321F091E090937200AE
S113072002C01092720090916F00911109C0811162
S113073007C0809171008A3018F48AE080937100B8
S11307406091710081E090E0B2DD6091700082E020
S113075090E0ADDD60916F0083E090E0A8DD109241
S11307606E0078940895CF93DF9300D000D000D02A
S1130770CDB7DEB700DEF4DDAFDD86E0E1E6F0E024
S1130780DE01119601900D928A95E1F77894C8DE06
S113079045DFCE010196F2DCCE0101966ADCF7CF8B
S10707A0F894FFCFF7
S10B07A4010B0B0B0B0B0B0006
S9030000FC
