:100000001CC036C035C034C007C232C031C030C099
:100010002FC02EC02DC02CC02BC02AC029C028C084
:1000200027C026C025C055C030C033C036C039C037
:100030003CC03FC042C045C048C011241FBECFE5F0
:10004000D4E0DEBFCDBF10E0A0E6B0E0EAE9F8E022
:1000500002C005900D92A236B107D9F720E0A2E6C2
:10006000B0E001C01D92AA37B207E1F70BD413C468
:10007000C7CF082E000C990BAA0BBB0B8A30910539
:1000800060F5FC01ED5EFF4F099486E08093680007
:1000900008958BE58093680008958FE4809368004D
:1000A000089586E68093680008958DE68093680041
:1000B00008958DE780936800089587E08093680035
:1000C00008958FE78093680008958FE68093680015
:1000D00008958FE380936800089510926800089552
:1000E000CF93DF93F894C0E0D0E081C080916000AE
:1000F000882309F449C0FE01E259FF4F8081B9DF2E
:100100008091650090916600892BB9F4209741F4A5
:1001100080916C0081110BC080916B00811107C030
:10012000C130D10551F480916B00882331F080916A
:10013000680080688093680034C0809164008823E0
:1001400049F0C430D10531F4809168008068809313
:10015000680027C080916300882349F0C330D1052F
:1001600031F4809168008068809368001AC08091A3
:1001700062008823B1F0C530D10599F48091680000
:100180008068809368000DC0C330D10521F48FE3EF
:100190008093680006C0C230D10531F481E78093B6
:1001A000680020E030E01FC0C130D105D1F781E701
:1001B00080936800F6CF80916800882324F482B38E
:1001C000806482BB03C082B38F7B82BB8091680056
:1001D000880F8093680088B3816088BB88B38E7F66
:1001E00088BB2F5F3F4F283031052CF32196C63056
:1001F000D1050CF47BCF82B3806882BB82B38F774A
:1002000082BB7894DF91CF91089580916A0082300B
:1002100051F480917900882331F0EEE6F0E08BE034
:100220008083818315C090916D00EEE6F0E087E653
:100230009802812D11248595859597FD8395382FFA
:10024000330F232F220F220F230F921B90838183C2
:1002500080916A00833051F480917900882331F0D5
:10026000EEE6F0E08BE08283838315C090916C0012
:10027000EEE6F0E087E69802812D112485958595BC
:1002800097FD8395382F330F232F220F220F230F33
:10029000921B9283838380916A00843051F4809111
:1002A0007900882331F0EEE6F0E08BE084838583EB
:1002B00015C090916B00EEE6F0E087E69802812D84
:1002C00011248595859597FD8395382F330F232F1E
:1002D000220F220F230F921B948385838091780035
:1002E00081110EC00895FC01E259FF4F20812111B8
:1002F0000BC0FC01E259FF4F2BE02083019702C0A5
:1003000085E090E0009779F70895E199FECF9FBBD3
:100310008EBB6DBB8CB384608CBB8CB382608CBB9A
:100320000895E199FECF9FBB8EBB8CB381608CBBDF
:100330008DB3089581E090E0F4DF80936D0082E05A
:1003400090E0EFDF80936C0083E090E0EADF809341
:100350006B0090916C00911102C0882321F081E024
:1003600080936900089510926900089515BC85B5C1
:10037000846085BD82B5886082BD89B7806489BF8D
:10038000089581B3806481BB82B38F7B82BB87B3C6
:10039000816087BB88B38E7F88BB81B3806881BB57
:1003A00082B38F7782BB87B3826087BB88B382605A
:1003B00088BB81B3806281BB82B38F7D82BB84B3F3
:1003C0008B7F84BB84B3877F84BB84B38F7E84BBE5
:1003D00084B38F7D84BB85B3846085BB85B388601F
:1003E00085BB85B3806185BB85B3806285BB20E01A
:1003F00030E008C088B3816088BB88B38E7F88BB3B
:100400002F5F3F4F22333105ACF382B3806882BB4C
:1004100082B38F7782BB08951F920F920FB60F920F
:1004200011242F933F934F935F936F937F938F93F9
:100430009F93AF93BF93EF93FF93809178008823AE
:1004400009F479C080916000882349F080916500AB
:10045000909166000196909366008093650080916C
:100460006C0081110FC090916B0091110BC09091A5
:100470006D009A3039F490916900992319F091E058
:100480009093630090916300992361F081110AC0F9
:1004900090916B00911106C090916D00963014F40C
:1004A00010926300811123C090916B0091111FC0C5
:1004B00090916D0091111BC0809165009091660034
:1004C0008330910524F481E08093640057C08C97B9
:1004D00044F480916400882309F450C010926400B1
:1004E0004DC028DF109266001092650047C0209131
:1004F000650030916600223031050CF43FC0109247
:1005000066001092650090916D00915090936D007F
:100510009923A4F5815080936C009BE390936D0028
:10052000882364F580916B00815080936B008BE38E
:1005300080936C0023C08091650090916600892BA8
:1005400021F0109266001092650080916300811185
:10055000109263008091620081111092620080917C
:10056000640081111092640080917900882319F051
:100570001092790003C081E080937900FF91EF91A0
:10058000BF91AF919F918F917F916F915F914F91AB
:100590003F912F910F900FBE0F901F9018952091B3
:1005A000600083B382958695877091E0892781707A
:1005B0002817F9F08091740090917500803B944069
:1005C00054F4809174009091750001969093750099
:1005D000809374001EC083B382958695877091E0E6
:1005E00089278170809360001092750010927400CA
:1005F00010C08091740090917500181619064CF483
:10060000809174009091750001979093750080938C
:10061000740080916700833011F0811128C09C998B
:1006200016C0811103C083E080936700809176003B
:100630009091770088359240D4F480917600909123
:1006400077000196909377008093760010C0809198
:10065000760090917700181619064CF48091760078
:100660009091770001979093770080937600809126
:100670006700823011F0811128C09B9916C081114A
:1006800003C082E0809367008091760090917700AC
:1006900088359240D4F4809176009091770001964D
:1006A000909377008093760010C0809176009091AF
:1006B0007700181619064CF4809176009091770017
:1006C0000197909377008093760080916700823045
:1006D00040F59A9916C0811103C081E080936700AC
:1006E000809176009091770088359240D4F4809183
:1006F0007600909177000196909377008093760032
:1007000010C08091760090917700181619064CF46D
:100710008091760090917700019790937700809375
:1007200076008091760090917700883592403CF079
:1007300010927700109276008091670001C080E0EF
:1007400020917600309177001216130614F0109263
:100750006700089590917800992331F0813009F075
:1007600090C0109278000895813059F590916A00F8
:10077000923061F490916D00915090936D009923A7
:100780000CF04EC09BE390936D004AC0933061F42F
:1007900090916C00915090936C0099230CF040C0A4
:1007A0009BE390936C003CC09430D1F590916B002A
:1007B000915090936B0099239CF598E190936B0076
:1007C0002FC0823069F590916A00911106C091E0C6
:1007D000909378009093620023C0923051F49091EE
:1007E0006D009F5F90936D009C33D4F010926D006C
:1007F00017C0933051F490916C009F5F90936C0000
:100800009C3374F010926C000BC0943049F49091BA
:100810006B009F5F90936B00993114F010926B0006
:10082000833079F580916A008F5F80936A00813010
:1008300029F480DD82E080936A000895853009F50F
:10084000F89480916C00823024F480916B0018162B
:1008500024F481E08093690002C0109269006091E5
:100860006D0081E090E051DD60916C0082E090E0ED
:100870004CDD60916B0083E090E047DD10926A00F0
:10088000789408957EDD72DD55DD789488DE62DF30
:0A089000BCDC26DCFBCFF894FFCFA0
:02089A0001005B
:00000001FF
