S01C0000636F6E766565725F6F7074696D69736174696F6E2E7372656397
S11300001CC036C035C034C033C032C0C7C130C0D4
S11300102FC02EC02DC02CC02BC02AC029C028C080
S113002027C026C025C041C030C043C030C031C045
S113003032C033C034C035C036C011241FBECFE532
S1130040D4E0DEBFCDBF10E0A0E6B0E0E8E4F7E026
S113005002C005900D92A836B107D9F720E0A8E6B2
S1130060B0E001C01D92A737B207E1F74ED36AC3CF
S1130070C7CF082E000C990BAA0BBB0B8A30910535
S1130080B0F4FC01ED5EFF4F099486E008958FE41F
S1130090089586E608958DE608958DE7089587E02E
S11300A008958FE708958FE608958FE3089580E01B
S11300B008958BE508951F93CF93DF93EC01F89493
S11300C010E066C080916100882309F43EC0FE01FF
S11300D0E10FF11D17FDFA958081CBDF1130D9F0C6
S11300E01CF4112331F03EC0143049F1153009F1EC
S11300F039C090917000992361F090917100992317
S113010089F190917600911104C090917500992322
S113011049F1806827C090917000992341F0909133
S113012071009923F9F0909176009923D9F08068B1
S113013019C0909173009923A9F0806813C090911D
S11301407200992379F080680DC0133031F01230B9
S113015031F0113031F481E705C08FE303C081E74A
S113016001C080E020E011C0882324F492B390649D
S113017092BB03C092B39F7B92BB880F98B39160EC
S113018098BB98B39E7F98BB2F5F283068F31F5F9E
S113019016300CF497CF82B3806882BB82B38F771A
S11301A082BB7894DF91CF911F910895CF93DF9311
S11301B0AC0190E051C0292F992314F421E0290FB8
S11301C02595A92F71E0790FFA01E90FF11D97FD2B
S11301D0FA95022E000C330B8091600090E02817F2
S11301E0390721F480917100811114C0E901CC58C0
S11301F0DF4F688197E66902912D112495959595B5
S113020067FD9395990F892F880F880F980F691BA5
S1130210962F01C09BE0908392E09A0FFA01E70FBA
S1130220F11D77FDFA956091600070E0261737079D
S113023021F48091710081110DC0D901AC58BF4FD8
S11302408C9127E68202212D11242595259587FD81
S1130250239501C02BE0208396300CF4ACCF809121
S11302607000811105C00FC09BE09083815001C0D4
S113027085E0882341F0FA01E80FF11D87FDFA9526
S113028090819111F1CFDF91CF910895E199FECF43
S11302909FBB8EBB6DBB8CB384608CBB8CB3826004
S11302A08CBB0895E199FECF9FBB8EBB8CB381605C
S11302B08CBB8DB30895CF93C0E00CC08C2F90E01D
S11302C0F1DF8C3308F085E0EC2FF0E0EC58FF4FC1
S11302D08083CF5FC33090F380917600811104C096
S11302E080917500882321F081E080936F0002C023
S11302F010926F00CF91089581B3806481BB82B363
S11303008F7B82BB87B3816087BB88B38E7F88BBBA
S113031081B3806881BB82B38F7782BB87B38260ED
S113032087BB88B3826088BB81B3806281BB82B3A0
S11303308F7D82BB84B38B7F84BB84B3877F84BB74
S113034084B38F7E84BB84B38F7D84BB85B3846088
S113035085BB85B3886085BB85B3806185BB85B368
S1130360806285BB90E007C088B3816088BB88B396
S11303708E7F88BB9F5F9033B8F382B3806882BB63
S113038082B38F7782BB08958EB58D608EBD87E072
S11303908BBD88E98ABD84E189BF08951F920F92BD
S11303A00FB60F9211242F933F934F935F936F9344
S11303B07F938F939F93AF93BF93EF93FF9380911A
S11303C06100882309F473C09091710081E089274A
S11303D08093710080917000882309F46DC080912E
S11303E07500811114C090917600911110C0909104
S11303F074009A3061F490916F00992341F09091C8
S11304007200911104C091E0909372000CC08111AC
S11304100AC090917600911106C0909174009630B4
S113042014F410927200811122C08091760081111F
S11304301EC08091740081111AC080916E008111D8
S113044004C081E0809373000CC0833019F41092CF
S1130450730007C08D3228F02EDF10926E001092C8
S1130460710080916E008F5F80936E0025C0809133
S11304707100811118C020C0822F022E000C990B2C
S1130480FC01EC58FF4F3081311107C0FC01EC58DE
S1130490FF4F3BE330832F5F07C0FC01EC58FF4F55
S11304A03150308309C020E0233034F305C08091FB
S11304B07300811110927300FF91EF91BF91AF917E
S11304C09F918F917F916F915F914F913F912F9168
S11304D00F900FBE0F901F9018952091610083B369
S11304E082958695877091E0892781702817D1F0CD
S11304F080916C0090916D00019690936D008093B3
S11305006C00813D9740C8F083B3829586958770CF
S113051091E0892781708093610010926D001092A0
S11305206C000BC080916C0090916D00009729F0D5
S1130530019790936D0080936C0080916A00909174
S11305406B00009721F410926900109268002091CA
S1130550680030916900232BD1F49C9907C023E0F3
S113056030E0309369002093680011C09B9907C064
S113057022E030E0309369002093680008C09A9923
S113058006C021E030E030936900209368009C9914
S113059007C020916800309169002330310591F043
S11305A09B9907C020916800309169002230310581
S11305B049F09A9919C0209168003091690021305E
S11305C0310591F4813D27E0920738F010926B00D9
S11305D010926A00809168000895019690936B00D0
S11305E080936A0080E00895009739F00197909312
S11305F06B0080936A0080E0089580E00895CF93B3
S113060090917000992391F0813009F07CC0109290
S113061070008091720081111092720080917300B9
S1130620882309F470C0109273006DC0833009F000
S11306303DC0809160008F5F80936000853021F41D
S11306403ADE109260005FC0833008F45CC0F89416
S113065080917500811104C090917600992321F056
S113066091E090936F0002C010926F009091760019
S1130670911109C0811107C0809174008A301CF463
S11306808AE080937400C0E00AC08C2F0C2E000C0A
S1130690990BFC01EC58FF4F6081F8DDCF5FC3304C
S11306A0A4F384E08093600078942DC0813099F4A1
S11306B080916000843039F190E0FC01EC58FF4FE8
S11306C02081222311F0215001C02BE3FC01EC58BE
S11306D0FF4F208318C08230B1F4809160008430D1
S11306E079F090E0FC01EC58FF4F20812B3311F09E
S11306F02F5F01C020E0FC01EC58FF4F208303C0B2
S113070081E080937000CF910895CF93DF9300D060
S113071000D000D0CDB7DEB7EFDD36DECCDD86E02D
S1130720E2E6F0E0DE01119601900D928A95E1F780
S11307307894CE010196BFDCD0DE61DFCE01019654
S10B074035DDF7CFF894FFCF7B
S10B074804010B0B0B0B0B0B5E
S9030000FC
