:1000000012C02CC02BC02AC0ACC128C027C026C03B
:1000100025C024C023C022C021C020C01FC01EC0D4
:100020001DC01CC01BC011241FBECFE5D4E0DEBF25
:10003000CDBF10E0A0E6B0E0E6E3F9E002C0059035
:100040000D92A236B107D9F720E0A2E6B0E001C0D8
:100050001D92AE37B207E1F73CD46BC4D1CF0895FF
:10006000CF93DF93F894C0E0D0E080E06CC0909133
:100070006000992309F43FC0FE01EE58FF4F8081D4
:10008000EEDF2091650030916600232BC9F42097A4
:1000900061F420916E0030916F00232B79F4209150
:1000A0006C0030916D00232B49F4C130D10541F42F
:1000B00020916C0030916D00232B11F080682AC0D4
:1000C00090916400992329F0C430D10511F480681F
:1000D00021C090916300992329F0C530D10511F416
:1000E000806818C0909162009923A1F0C330D105B7
:1000F00089F480680FC0C330D10539F0C230D10512
:1001000031F0C130D10531F404C08FE303C081E781
:1001100001C081E720E030E012C0882324F492B3CC
:10012000906492BB03C092B39F7B92BB880F98B33D
:10013000916098BB98B39E7F98BB2F5F3F4F28304C
:1001400031055CF32196C630D1050CF490CF82B313
:10015000806882BB82B38F7782BB7894DF91CF9126
:10016000089580916A0090916B00029751F48091FC
:100170007D00882331F0E2E7F0E08BE0808381832B
:100180000BC080917000909171006AE070E0AAD37A
:10019000E2E7F0E08083618380916A0090916B00D8
:1001A000039751F480917D00882331F0E2E7F0E07D
:1001B0008BE0828383830BC080916E0090916F00EF
:1001C0006AE070E08FD3E2E7F0E08283638380919E
:1001D0006A0090916B00049751F480917D00882310
:1001E00031F0E2E7F0E08BE0848385830BC08091FF
:1001F0006C0090916D006AE070E074D3E2E7F0E08B
:100200008483658380917C0081110EC00895FC0178
:10021000EE58FF4F208121110BC0FC01EE58FF4F1B
:100220002BE02083019702C085E090E0009779F7EA
:100230000895E199FECF9FBB8EBB6DBB8CB38460EC
:100240008CBB8CB382608CBB0895E199FECF9FBBC1
:100250008EBB8CB381608CBB8DB3089581E090E040
:10026000F4DF082E000C990B9093710080937000BE
:1002700082E090E0EADF082E000C990B90936F006B
:1002800080936E0083E090E0E0DF082E000C990B75
:1002900090936D0080936C0020916E0030916F0000
:1002A000232B11F4892B21F081E0809369000895BC
:1002B00010926900089515BC85B5846085BD82B52E
:1002C000886082BD89B7806489BF089581B38064E6
:1002D00081BB82B38F7B82BB87B3816087BB88B3CE
:1002E0008E7F88BB81B3806881BB82B38F7782BBEE
:1002F00087B3826087BB88B3826088BB81B380622A
:1003000081BB82B38F7D82BB84B38B7F84BB84B37C
:10031000877F84BB84B38F7E84BB84B38F7D84BB93
:1003200085B3846085BB85B3886085BB85B38061F8
:1003300085BB85B3806285BB20E030E008C088B310
:10034000816088BB88B38E7F88BB2F5F3F4F22338D
:100350003105ACF382B3806882BB82B38F7782BBF6
:1003600008951F920F920FB60F9211242F933F936F
:100370004F935F936F937F938F939F93AF93BF93AD
:10038000EF93FF9380917C00882309F49BC08091B8
:100390006000882349F08091650090916600019685
:1003A000909366008093650080916E0090916F003D
:1003B0000097A1F420916C0030916D00232B71F413
:1003C00020917000309171002A30310539F420916C
:1003D0006900222319F021E020936300209163003B
:1003E000222389F0009779F420916C0030916D0000
:1003F000232B49F420917000309171002630310593
:1004000014F410926300009739F520916C0030913C
:100410006D00232B09F52091700030917100232B82
:10042000D9F480916500909166008330910524F4A1
:1004300081E08093640069C08C9744F480916400EB
:10044000882309F462C0109264005FC007DF109235
:1004500066001092650059C02091650030916600D9
:10046000223031050CF451C01092660010926500E4
:10047000209170003091710021503109309371004A
:100480002093700033230CF040C0019790936F00CD
:1004900080936E002BE330E0309371002093700066
:1004A00099239CF580916C0090916D000197909339
:1004B0006D0080936C008BE390E090936F008093CD
:1004C0006E0023C08091650090916600892B21F019
:1004D0001092660010926500809163008111109265
:1004E000630080916200811110926200809164002B
:1004F00081111092640080917D00882319F0109280
:100500007D0003C081E080937D00FF91EF91BF915A
:10051000AF919F918F917F916F915F914F913F919B
:100520002F910F900FBE0F901F9018952091600093
:1005300083B382958695877091E08927817028170B
:10054000F9F08091780090917900803B944050F4CC
:100550008091780090917900019690937900809332
:1005600078001DC083B382958695877091E08927B6
:1005700081708093600010927900109278000FC013
:100580008091780090917900892B49F080917800D2
:1005900090917900019790937900809378008091F1
:1005A0006700909168008330910511F0009769F51C
:1005B0009C991AC0892B31F483E090E090936800F5
:1005C0008093670080917A0090917B0088359240FB
:1005D00008F079C080917A0090917B000196909309
:1005E0007B0080937A006FC080917A0090917B00AD
:1005F000892B09F468C080917A0090917B00019763
:1006000090937B0080937A005EC08230910511F058
:10061000009761F59B991AC0892B31F482E090E034
:10062000909368008093670080917A0090917B009E
:100630008835924008F047C080917A0090917B0005
:10064000019690937B0080937A003DC080917A0060
:1006500090917B00892BB9F180917A0090917B0079
:10066000019790937B0080937A002DC08230910592
:1006700050F59A9919C0892B31F481E090E090935C
:1006800068008093670080917A0090917B008835A4
:100690009240C8F480917A0090917B0001969093EB
:1006A0007B0080937A000FC080917A0090917B004C
:1006B000892B49F080917A0090917B00019790936B
:1006C0007B0080937A0080917A0090917B0088353E
:1006D000924048F010927B0010927A00809167005F
:1006E0009091680002C080E090E020917A00309103
:1006F0007B00232B21F4109268001092670008956C
:1007000020917C00222331F0019709F0E1C0109282
:100710007C0008958130910509F04AC020916A005B
:1007200030916B0022303105A1F42091700030919E
:1007300071002150310930937100209370003323F0
:100740000CF085C02BE330E03093710020937000F3
:100750007EC023303105A1F420916E0030916F00EE
:100760002150310930936F0020936E0033230CF039
:100770006EC02BE330E030936F0020936E0067C0B3
:100780002430310509F063C020916C0030916D0078
:100790002150310930936D0020936C0033230CF00D
:1007A00056C028E130E030936D0020936C004FC0BC
:1007B0008230910509F04BC020916A0030916B00A6
:1007C0002115310531F421E020937C002093620053
:1007D0003EC02230310591F42091700030917100BB
:1007E0002F5F3F4F30937100209370002C33310501
:1007F00074F1109271001092700029C023303105FD
:1008000091F420916E0030916F002F5F3F4F309335
:100810006F0020936E002C333105CCF010926F00E6
:1008200010926E0014C02430310589F420916C00C0
:1008300030916D002F5F3F4F30936D0020936C001F
:100840002931310524F010926D0010926C0003974D
:1008500009F03EC080916A0090916B0001969093E0
:100860006B0080936A008130910541F4F7DC82E0EF
:1008700090E090936B0080936A000895059741F58E
:10088000F89480916E0090916F0002973CF48091F3
:100890006C0090916D001816190624F481E0809385
:1008A000690002C0109269006091700081E090E0E0
:1008B000C0DC60916E0082E090E0BBDC60916C0077
:1008C00083E090E0B6DC10926B0010926A0078949E
:1008D0000895FCDCF0DCC2DC789428DE11DF41DC1A
:1008E000BFDBFBCF97FB072E16F4009406D077FDF5
:1008F00008D00BD007FC05D03EF4909581959F4F12
:100900000895709561957F4F0895AA1BBB1B51E117
:1009100007C0AA1FBB1FA617B70710F0A61BB70B6F
:10092000881F991F5A95A9F780959095BC01CD0114
:060930000895F894FFCFCA
:020936000100BE
:00000001FF
