:100000001CC036C035C034C033C032C0FAC130C0A5
:100010002FC02EC02DC02CC02BC02AC029C028C084
:1000200027C026C025C041C030C043C030C031C049
:1000300032C033C034C035C036C011241FBECFE536
:10004000D4E0DEBFCDBF10E0A0E6B0E0E2EDF7E027
:1000500002C005900D92A836B107D9F720E0A8E6B6
:10006000B0E001C01D92A837B207E1F793D3AFC348
:10007000C7CF082E000C990BAA0BBB0B8A30910539
:10008000B0F4FC01ED5EFF4F099486E008958FE423
:10009000089586E608958DE608958DE7089587E032
:1000A00008958FE708958FE608958FE3089580E01F
:1000B00008958BE508951F93CF93DF93EC01F89497
:1000C00010E060C0809160008823C9F1FE01E10F5B
:1000D000F11D8081CEDF1130C1F028F0143049F1DC
:1000E000153009F139C090917400992361F0909115
:1000F0007500992389F190917100911104C090913C
:100100007000992349F1806827C090917400992369
:1001100041F0909175009923F9F090917000992326
:10012000D9F0806819C0909177009923A9F0806870
:1001300013C090917600992379F080680DC0133038
:1001400031F0123031F0113031F481E705C08FE326
:1001500003C081E701C080E020E011C0882324F4BF
:1001600092B3906492BB03C092B39F7B92BB880F03
:1001700098B3916098BB98B39E7F98BB2F5F28304F
:1001800068F31F5F163008F49DCF82B3806882BB8E
:1001900082B38F7782BB7894DF91CF911F910895BE
:1001A000FC0180916F00823021F4809175008111F3
:1001B00011C0209172009DEC299F912D11249695DC
:1001C00096959695990F892F880F880F980F291B60
:1001D000922F01C09BE0908380916F00823021F4C8
:1001E0009091750091110AC0909172002DEC929F30
:1001F000912D112496959695969501C09BE091833B
:10020000833021F490917500911111C030917100EB
:100210009DEC399F912D1124969596959695990F61
:10022000292F220F220F920F391B932F01C09BE021
:100230009283833021F49091750091110AC09091BE
:1002400071002DEC929F912D11249695969596957F
:1002500001C09BE09383843021F49091750091114B
:1002600011C0309170009DEC399F912D112496950D
:1002700096959695990F292F220F220F920F391BD1
:10028000932F01C09BE09483843021F4809175000A
:1002900081110AC0809170009DEC899F812D1124ED
:1002A00086958695869501C08BE085838091740044
:1002B000811105C008958BE08C93915001C095E0A9
:1002C000992341F0DF01A90FB11D97FDBA958C91DB
:1002D0008111F1CF0895E199FECF9FBB8EBB6DBB1D
:1002E0008CB384608CBB8CB382608CBB0895E19925
:1002F000FECF9FBB8EBB8CB381608CBB8DB308954A
:1003000081E090E0F4DF8093720082E090E0EFDF24
:100310008093710083E090E0EADF80937000909119
:1003200072009C3310F010927200909171009C3317
:1003300018F099E190937100883110F010927000DC
:1003400080917100811104C080917000882321F098
:1003500081E080937300089510927300089581B333
:10036000806481BB82B38F7B82BB87B3816087BB94
:1003700088B38E7F88BB81B3806881BB82B38F775F
:1003800082BB87B3826087BB88B3826088BB81B33E
:10039000806281BB82B38F7D82BB84B38B7F84BB41
:1003A00084B3877F84BB84B38F7E84BB84B38F7D0B
:1003B00084BB85B3846085BB85B3886085BB85B30A
:1003C000806185BB85B3806285BB90E007C088B340
:1003D000816088BB88B38E7F88BB9F5F9033B8F302
:1003E00082B3806882BB82B38F7782BB08958EB55B
:1003F0008D608EBD87E08BBD81EA8ABD84E189BFB7
:1004000008951F920F920FB60F9211242F933F93CE
:100410004F935F936F937F938F939F93AF93BF930C
:10042000EF93FF9380916000882309F45EC0909160
:10043000750081E08927809375008091740088237E
:1004400009F458C080917100811114C0909170001E
:10045000911110C0909172009A3061F490917300E4
:10046000992341F090917600911104C091E090930E
:1004700076000CC081110AC090917000911106C0E5
:1004800090917200963010F410927600811123C082
:100490008091700081111FC08091720081111BC07A
:1004A00080916E00811104C081E0809377000DC0BF
:1004B000833019F41092770008C08D3230F020DFBD
:1004C00010926E0081E08093750080916E008F5FC6
:1004D00080936E000FC080917500882359F0809141
:1004E000720081508093720005C080917700811165
:1004F00010927700FF91EF91BF91AF919F918F91F3
:100500007F916F915F914F913F912F910F900FBE0F
:100510000F901F9018952091600083B38295869567
:10052000877091E0892781702817D1F080916C0045
:1005300090916D00019690936D0080936C008133D3
:100540009940C8F083B382958695877091E089279A
:1005500081708093600010926D0010926C000BC04F
:1005600080916C0090916D00009729F00197909315
:100570006D0080936C0080916A0090916B000097F1
:1005800021F4109269001092680020916800309167
:100590006900232BD1F49C9907C023E030E030930D
:1005A00069002093680011C09B9907C022E030E0E9
:1005B000309369002093680008C09A9906C021E032
:1005C00030E030936900209368009C9907C0209127
:1005D0006800309169002330310591F09B9907C084
:1005E00020916800309169002230310549F09A99D4
:1005F00019C020916800309169002130310591F4D3
:10060000813329E0920738F010926B0010926A0053
:10061000809168000895019690936B0080936A0022
:1006200080E00895009739F0019790936B008093D4
:100630006A0080E0089580E0089590917400992305
:1006400091F0813009F0A5C010927400809176007D
:1006500081111092760080917700882309F499C067
:10066000109277000895813039F580916F008230C3
:1006700051F480917200882311F0815001C08BE306
:10068000809372000895833051F480917100882323
:1006900011F0815001C08BE3809371000895843084
:1006A00009F077C080917000882311F0815001C05B
:1006B00087E1809370000895823069F580916F0022
:1006C000811104C081E0809374000895823051F458
:1006D000809172008B3311F08F5F01C080E08093B6
:1006E00072000895833051F4809171008B3311F0C2
:1006F0008F5F01C080E0809371000895843009F01D
:1007000048C080917000873111F08F5F01C080E098
:100710008093700008958330E1F580916F008F5FC2
:1007200080936F00813029F4EBDD82E080936F00CD
:100730000895853070F1F89480917100811104C0A2
:1007400090917000992321F091E09093730002C082
:100750001092730090917000911109C0811107C02F
:10076000809172008A3018F48AE080937200609160
:10077000720081E090E0AFDD6091710082E090E076
:10078000AADD6091700083E090E0A5DD10926F001B
:1007900078940895CF93DF9300D000D000D0CDB7E8
:1007A000DEB7DDDD24DEACDD86E0E1E6F0E0DE0193
:1007B000119601900D928A95E1F77894CE010196F9
:1007C0007ADCA9DE3ADFCE010196EADCF7CFF894B5
:0207D000FFCF59
:0807D200010B0B0B0B0B0B00DC
:00000001FF
