S01C0000636F6E766565725F6F7074696D69736174696F6E2E7372656397
S11300001CC036C035C034C033C032C0F4C130C0A7
S11300102FC02EC02DC02CC02BC02AC029C028C080
S113002027C026C025C03DC02CC03FC02CC02DC059
S11300302EC02FC030C031C032C011241FBECFE546
S1130040D4E0DEBFCDBF10E0A0E6B0E0E0EAF7E028
S113005002C005900D92A836B107D9F720E0A8E6B2
S1130060B0E001C01D92A537B207E1F778D396C37B
S1130070C7CF90E08A309105B0F4FC01ED5EFF4FEC
S1130080099486E008958FE4089586E608958DE640
S113009008958DE7089587E008958FE708958FE622
S11300A008958FE3089580E008958BE508951F93E4
S11300B0CF93DF93EC01F89410E060C0809160006E
S11300C08823C9F1FE01E10FF11D8081D2DF1130D7
S11300D0C1F028F0143049F1153009F139C090917C
S11300E07100992361F090917200992389F19091A4
S11300F06E00911104C090916D00992349F18068BC
S113010027C090917100992341F090917200992336
S1130110F9F090916D009923D9F0806819C09091FD
S113012074009923A9F0806813C0909173009923F7
S113013079F080680DC0133031F0123031F0113095
S113014031F481E705C08FE303C081E701C080E09B
S113015020E011C0882324F492B3906492BB03C0BE
S113016092B39F7B92BB880F98B3916098BB98B36E
S11301709E7F98BB2F5F283068F31F5F163008F40A
S11301809DCF82B3806882BB82B38F7782BB789421
S1130190DF91CF911F910895FC0180916C00823012
S11301A021F480917200811111C020916F009DECA7
S11301B0299F912D1124969596959695990F892F9F
S11301C0880F880F980F291B922F01C09BE0908302
S11301D080916C00823021F49091720091110AC0D8
S11301E090916F002DEC929F912D112496959695E8
S11301F0969501C09BE09183833021F49091720025
S1130200911111C030916E009DEC399F912D1124F4
S1130210969596959695990F292F220F220F920F56
S1130220391B932F01C09BE09283833021F490917A
S1130230720091110AC090916E002DEC929F912D45
S1130240112496959695969501C09BE093838430EE
S113025021F490917200911111C030916D009DECC8
S1130260399F912D1124969596959695990F292F3E
S1130270220F220F920F391B932F01C09BE094830E
S1130280843021F48091720081110AC080916D0044
S11302909DEC899F812D112486958695869501C0B4
S11302A08BE0858380917100811105C008958BE0F6
S11302B08C93915001C095E0992341F0DF01A90F7F
S11302C0B11D97FDBA958C918111F1CF0895E199F3
S11302D0FECF9FBB8EBB6DBB8CB384608CBB8CB3D9
S11302E082608CBB0895E199FECF9FBB8EBB8CB31B
S11302F081608CBB8DB3089581E090E0F4DF80933E
S11303006F0082E090E0EFDF80936E0083E090E086
S1130310EADF80936D0090916F009C3310F010928F
S11303206F0090916E009C3318F099E190936E00E9
S11303308C3310F010926D0080916E00811104C016
S113034080916D00882321F081E0809370000895EE
S11303501092700008958EB58D608EBD9BBD1ABC41
S113036084E189BF089581B3806481BB82B38F7BAC
S113037082BB87B3816087BB88B38E7F88BB81B320
S1130380806881BB82B38F7782BB87B3826087BB6F
S113039088B3826088BB81B3806281BB82B38F7D66
S11303A082BB84B38B7F84BB84B3877F84BB84B3D9
S11303B08F7E84BB84B38F7D84BB85B3846085BB0F
S11303C085B3886085BB85B3806185BB85B3806256
S11303D085BB90E007C088B3816088BB88B38E7FFB
S11303E088BB9F5F9033B8F382B3806882BB82B3CB
S11303F08F7782BB08951F920F920FB60F9211242C
S11304002F933F934F935F936F937F938F939F9318
S1130410AF93BF93EF93FF9380916000882309F417
S11304205EC09091720081E0892780937200809170
S11304307100882309F458C080916E00811114C0A2
S113044090916D00911110C090916F009A3061F4F9
S113045090917000992341F090917300911104C020
S113046091E0909373000CC081110AC090916D00CB
S1130470911106C090916F00963010F410927300A1
S1130480811123C080916D0081111FC080916F0084
S113049081111BC080916B00811104C081E08093A5
S11304A074000DC0823019F41092740008C08D32AB
S11304B030F022DF10926B0081E080937200809113
S11304C06B008F5F80936B000FC080917200882354
S11304D059F080916F00815080936F0005C0809126
S11304E07400811110927400FF91EF91BF91AF914C
S11304F09F918F917F916F915F914F913F912F9138
S11305000F900FBE0F901F9018952091600083B339
S113051082958695877091E089278170281791F0DC
S113052080916A008F5F80936A008B3090F083B370
S113053082958695877089278170809360001092D8
S11305406A0007C080916A00882319F08150809363
S11305506A0080916900811102C010926800909134
S11305606800911111C09C9904C093E090936800B5
S11305700BC09B9904C092E09093680005C09A99BF
S113058003C091E0909368009C9904C09091680026
S1130590933061F09B9904C090916800923031F0DF
S11305A09A9910C090916800913061F48B3028F0D2
S11305B0109269008091680008958F5F80936900AC
S11305C080E00895882321F081508093690080E0C1
S11305D0089590917100992391F0813009F0AEC093
S11305E010927100809173008111109273008091B8
S11305F07400882309F4A2C0109274000895813015
S113060069F580916C00823061F480916F008150B3
S113061080936F008C3308F491C08BE380936F0058
S11306200895833061F480916E00815080936E0050
S11306308C3308F483C08BE380936E000895843078
S113064009F07CC080916D00815080936D008831E9
S113065008F474C087E180936D000895823081F5B9
S113066080916C00811104C081E080937100089531
S1130670823059F480916F008F5F80936F008C33C8
S113068008F45CC010926F000895833059F480918F
S11306906E008F5F80936E008C3308F44FC010920D
S11306A06E000895843009F049C080916D008F5F19
S11306B080936D00883108F441C010926D00089554
S11306C08330E1F580916C008F5F80936C00813002
S11306D029F412DE82E080936C000895853070F175
S11306E0F89480916E00811104C090916D0099235B
S11306F021F091E09093700002C0109270009091EC
S11307006D00911109C0811107C080916F008A307A
S113071018F48AE080936F0060916F0081E090E0AC
S1130720D6DD60916E0082E090E0D1DD60916D00D5
S113073083E090E0CCDD10926C0078940895CF9320
S1130740C0E008C0E2DE811108C001C08F5F8A30BA
S1130750E8F3CF5FC035B0F380E0CF910895CF9335
S1130760DF9300D000D000D0CDB7DEB7FCDD82E44B
S11307709FE0F1DDC1DD86E0E1E6F0E0DE01119607
S113078001900D928A95E1F77894CE0101968FDC61
S1130790D6DF1FDFCE010196FFDCF7CFF894FFCF41
S10B07A0010B0B0B0B0B0B000A
S9030000FC
