:100000001CC036C035C034C018C232C031C030C088
:100010002FC02EC02DC02CC02BC02AC029C028C084
:1000200027C026C025C041C030C043C030C031C049
:1000300032C033C034C035C036C011241FBECFE536
:10004000D4E0DEBFCDBF10E0A0E6B0E0E6E0F8E02F
:1000500002C005900D92A836B107D9F720E0A8E6B6
:10006000B0E001C01D92A537B207E1F7ADD3C9C317
:10007000C7CF082E000C990BAA0BBB0B8A30910539
:10008000B0F4FC01ED5EFF4F099486E008958FE423
:10009000089586E608958DE608958DE7089587E032
:1000A00008958FE708958FE608958FE3089580E01F
:1000B00008958BE508951F93CF93DF93EC01F89497
:1000C00010E05DC0809160008823B1F1FE01E10F76
:1000D000F11D17FDFA958081CCDF1130B9F01CF4C9
:1000E000112331F036C0133009F11430C9F031C09A
:1000F00090917200992369F190916E00911104C062
:1001000090916D00992329F1806823C0909172002D
:100110009923F9F090916D009923D9F0806819C066
:10012000909174009923A9F0806813C09091730096
:10013000992379F080680DC0133031F0123031F01E
:10014000113031F481E705C08FE303C081E701C0BE
:1001500080E020E011C0882324F492B3906492BB25
:1001600003C092B39F7B92BB880F98B3916098BBFA
:1001700098B39E7F98BB2F5F28306CF31F5F1630BB
:100180000CF4A0CF82B3806882BB82B38F7782BB2E
:100190007894DF91CF911F910895FC0180916C00BC
:1001A000823021F480917200811112C020916F0081
:1001B00097E62902912D11249595959527FD939504
:1001C000990F892F880F880F980F291B922F01C034
:1001D0009BE0908320916C00223021F4809172008A
:1001E00081110BC090916F0087E69802812D112438
:1001F0008595859597FD839501C08BE0818323309C
:1002000021F480917200811112C030916E0097E646
:100210003902912D11249595959537FD9395990F58
:10022000892F880F880F980F391B932F01C09BE0EF
:100230009283233021F48091720081110BC0909140
:100240006E0087E69802812D11248595859597FD8E
:10025000839501C08BE08383243021F48091720068
:10026000811112C030916D0097E63902912D112451
:100270009595959537FD9395990F892F880F880F40
:10028000980F391B932F01C09BE09483243021F4F5
:100290008091720081110BC090916D0087E69802E9
:1002A000812D11248595859597FD839501C08BE05F
:1002B000858380917100811105C008959BE09C9316
:1002C000815001C085E0882341F0DF01A80FB11DF6
:1002D00087FDBA959C919111F1CF0895E199FECFD8
:1002E0009FBB8EBB6DBB8CB384608CBB8CB38260B8
:1002F0008CBB0895E199FECF9FBB8EBB8CB3816010
:100300008CBB8DB30895CF9381E090E0F3DFC7E617
:100310008C02912D11249595959587FD9395990FB4
:10032000292F220F220F920F891B80936F0082E0EA
:1003300090E0E0DF8C02912D11249595959587FD35
:100340009395990F292F220F220F920F891B8093CB
:100350006E0083E090E0CEDF8C02912D1124959504
:10036000959587FD9395990F292F220F220F920FB4
:10037000891B982F80936D0080916E00811102C0BF
:10038000992321F081E08093700002C010927000E8
:10039000CF91089515BC85B5846085BD82B5886010
:1003A00082BD89B7806489BF089581B3806481BBB1
:1003B00082B38F7B82BB87B3816087BB88B38E7F1C
:1003C00088BB81B3806881BB82B38F7782BB87B3E0
:1003D000826087BB88B3826088BB81B3806281BB47
:1003E00082B38F7D82BB90E007C088B3816088BBF9
:1003F00088B38E7F88BB9F5F9233BCF382B38068E3
:1004000082BB82B38F7782BB84B38B7F84BB84B380
:10041000877F84BB84B38F7E84BB84B38F7D84BB92
:1004200085B3846085BB85B3886085BB85B38061F7
:1004300085BB85B3806285BB08951F920F920FB66E
:100440000F9211242F933F934F935F936F937F935A
:100450008F939F93AF93BF93EF93FF93809160002F
:10046000882309F470C09091720081E089278093FD
:10047000720080917100882309F46AC080916E0037
:10048000811114C090916D00911110C090916F0076
:100490009A3061F490917000992341F0909173002B
:1004A000911104C091E0909373000CC081110AC0B7
:1004B00090916D00911106C090916F00963014F4E8
:1004C00010927300811123C090916D0091111FC093
:1004D00090916F0091111BC080916B00811104C03D
:1004E00081E0809374000DC0833019F41092740081
:1004F00008C08D3234F007DF10926B0081E08093EA
:10050000720080916B008F5F80936B0021C090918F
:1005100072009923E9F090916F00915090936F00D1
:100520009923B4F4815080936E009BE390936F0005
:10053000882374F480916D00815080936D008BE36B
:1005400080936E0005C08091740081111092740038
:10055000FF91EF91BF91AF919F918F917F916F919B
:100560005F914F913F912F910F900FBE0F901F9071
:1005700018952091600083B382958695877091E0ED
:1005800089278170281791F080916A008F5F80938E
:100590006A008B3094F083B38295869587708927A3
:1005A00081708093600010926A0007C080916A0099
:1005B00018161CF4815080936A00809169008111A3
:1005C00002C01092680090916800911111C09C992E
:1005D00004C093E0909368000BC09B9904C092E024
:1005E0009093680005C09A9903C091E090936800C9
:1005F0009C9904C090916800933061F09B9904C06D
:1006000090916800923031F09A9910C090916800F2
:10061000913061F48B302CF0109269008091680069
:1006200008958F5F8093690080E00895882321F00A
:1006300081508093690080E0089590917100992322
:1006400089F0813011F41092710080917300811152
:100650001092730080917400882309F4A4C0109252
:1006600074000895813069F580916C00823061F4E6
:1006700080916F00815080936F0088230CF093C0AD
:100680008BE380936F000895833061F480916E0056
:10069000815080936E0088230CF085C08BE380939B
:1006A0006E000895843009F07EC080916D00815005
:1006B00080936D0088230CF076C087E180936D00F5
:1006C0000895823091F580916C00811106C081E01F
:1006D00080937100809372000895823059F4809164
:1006E0006F008F5F80936F008C330CF45CC01092AE
:1006F0006F000895833059F480916E008F5F80936E
:100700006E008C330CF44FC010926E00089584304C
:1007100009F049C080916D008F5F80936D00883132
:100720000CF441C010926D0008958330E1F5809182
:100730006C008F5F80936C00813029F4E4DD82E0EF
:1007400080936C000895853071F5F89480916E0067
:10075000811104C090916D00992321F091E0909354
:10076000700002C01092700090916D00911109C04C
:10077000811107C080916F008A301CF48AE0809359
:100780006F0060916F0081E090E0A8DD60916E00E5
:1007900082E090E0A3DD60916D0083E090E09EDD5B
:1007A00010926C0078940895CF93C0E008C0E1DE09
:1007B000811108C001C08F5F8233E8F3CF5FC2337D
:1007C000B0F380E0CF910895CF93DF9300D000D0B5
:1007D00000D0CDB7DEB7E9DDDDDD95DD86E0E1E611
:1007E000F0E0DE01119601900D928A95E1F7789480
:1007F000DBDF23DFCE010196D0DCCE0101965BDC8E
:06080000F7CFF894FFCFD2
:08080600010B0B0B0B0B0B00A7
:00000001FF
