:100000001CC036C035C034C033C032C007C230C097
:100010002FC02EC02DC02CC02BC02AC029C028C084
:1000200027C026C025C041C030C043C030C031C049
:1000300032C033C034C035C036C011241FBECFE536
:10004000D4E0DEBFCDBF10E0A0E6B0E0EAEDF7E01F
:1000500002C005900D92A236B107D9F720E0A2E6C2
:10006000B0E001C01D92A137B207E1F7A0D3B3C33E
:10007000C7CF082E000C990BAA0BBB0B8A30910539
:10008000B0F4FC01ED5EFF4F099486E008958FE423
:10009000089586E608958DE608958DE7089587E032
:1000A00008958FE708958FE608958FE3089580E01F
:1000B00008958BE508951F93CF93DF93EC01F89497
:1000C00010E067C080916000882309F43FC0FE0102
:1000D000E10FF11D17FDFA958081CBDF14303CF460
:1000E000123044F5112331F01130B1F03CC016301C
:1000F0003CF139C090916D00992361F090916E00B0
:10010000992389F190916A00911104C0909169003E
:10011000992349F1806827C090916D00992341F09F
:1001200090916E009923F9F0909169009923D9F08C
:10013000806819C0909170009923A9F0806813C05D
:1001400090916F00992379F080680DC0133031F0E1
:10015000123031F0113031F481E705C08FE303C074
:1001600081E701C080E020E011C0882324F492B32D
:10017000906492BB03C092B39F7B92BB880F98B3ED
:10018000916098BB98B39E7F98BB2F5F283068F32F
:100190001F5F16300CF496CF82B3806882BB82B3A7
:1001A0008F7782BB7894DF91CF911F910895FC01E6
:1001B00080916800823021F480916E00811112C01C
:1001C00020916B0097E62902912D11249595959524
:1001D00027FD9395990F892F880F880F980F291B5A
:1001E000922F01C09BE0908320916800223021F47F
:1001F00080916E0081110BC090916B0087E6980290
:10020000812D11248595859597FD839501C08BE0FF
:100210008183233021F480916E00811112C03091CE
:100220006A0097E63902912D11249595959537FD31
:100230009395990F892F880F880F980F391B932F4B
:1002400001C09BE09283233021F480916E008111E4
:100250000BC090916A0087E69802812D1124859544
:10026000859597FD839501C08BE08383243021F42D
:1002700080916E00811112C03091690097E63902B9
:10028000912D11249595959537FD9395990F892F6B
:10029000880F880F980F391B932F01C09BE0948320
:1002A000243021F480916E0081110BC0909169007F
:1002B00087E69802812D11248595859597FD839574
:1002C00001C08BE0858380916D00811105C0089588
:1002D0009BE09C93815001C085E0882341F0DF01C1
:1002E000A80FB11D87FDBA959C91992389F30895B4
:1002F000E199FECF9FBB8EBB6DBB8CB384608CBB82
:100300008CB382608CBB0895E199FECF9FBB8EBBFE
:100310008CB381608CBB8DB3089581E090E0F4DFF5
:1003200080936B0082E090E0EFDF80936A0083E0CF
:1003300090E0EADF8093690090916B009C3310F0AD
:1003400010926B0090916A009C3318F099E19093A1
:100350006A00883110F01092690080916A00811162
:1003600004C080916900882321F081E080936C00B3
:10037000089510926C00089581B3806481BB82B3AC
:100380008F7B82BB87B3816087BB88B38E7F88BB3E
:1003900081B3806881BB82B38F7782BB87B3826071
:1003A00087BB88B3826088BB81B3806281BB82B324
:1003B0008F7D82BB84B38B7F84BB84B3877F84BBF8
:1003C00084B38F7E84BB84B38F7D84BB85B384600C
:1003D00085BB85B3886085BB85B3806185BB85B3EC
:1003E000806285BB90E007C088B3816088BB88B31A
:1003F0008E7F88BB9F5F9033B8F382B3806882BBE7
:1004000082B38F7782BB08958EB58D608EBD87E0F5
:100410008BBD80EA8ABD84E189BF08951F920F9247
:100420000FB60F9211242F933F934F935F936F93C7
:100430007F938F939F93AF93BF93EF93FF9380919D
:100440006000882309F474C090916E0081E08927D0
:1004500080936E0080916D00882309F46EC08091B6
:100460006F00811114C080916A00811110C08091C9
:10047000690081110CC080916B008A3041F4809139
:100480006C00882321F081E080936F0012C080917E
:100490006F00882371F080916A0081110AC08091F9
:1004A0006900811106C080916B00883014F41092AD
:1004B0006F0080916A0081111FC0909169009111B5
:1004C0001BC090916B00911117C0809167008F5FE6
:1004D00080936700813019F4809370002EC08430BF
:1004E00019F41092700029C08D3238F116DF109285
:1004F000670010926E0021C090916E009923E9F080
:1005000090916B00915090936B009923B4F48150BB
:1005100080936A009BE390936B00882374F480912E
:1005200069008150809369008BE380936A0005C065
:1005300080917000811110927000FF91EF91BF9136
:10054000AF919F918F917F916F915F914F913F916B
:100550002F910F900FBE0F901F9018952091600063
:1005600083B382958695877091E0892781702817DB
:10057000D1F080916500909166000196909366009D
:100580008093650081339940C8F083B38295869546
:10059000877091E0892781708093600010926600D7
:1005A000109265000BC080916500909166000097E5
:1005B00029F0019790936600809365008091630015
:1005C00090916400009711F41092620020916200F3
:1005D000211111C09C9904C023E0209362000BC03C
:1005E0009B9904C022E02093620005C09A9903C041
:1005F00021E0209362009C9904C020916200233086
:1006000061F09B9904C020916200223031F09A99E8
:1006100016C020916200213091F4813329E09207C5
:1006200038F0109264001092630080916200089587
:100630000196909364008093630080E00895009792
:1006400039F00197909364008093630080E00895EF
:1006500080E0089590916D00992391F0813009F028
:10066000A5C010926D0080916F00811110926F00F3
:1006700080917000882309F499C010927000089549
:10068000813039F580916800823051F480916B009F
:10069000882311F0815001C08BE380936B00089593
:1006A000833051F480916A00882311F0815001C099
:1006B0008BE380936A000895843009F077C08091BD
:1006C0006900882311F0815001C087E1809369009F
:1006D0000895823069F580916800811104C081E03D
:1006E00080936D000895823051F480916B008B33BC
:1006F00011F08F5F01C080E080936B00089583301C
:1007000051F480916A008B3311F08F5F01C080E05B
:1007100080936A000895843009F048C08091690090
:10072000873111F08F5F01C080E0809369000895E8
:100730008330E1F5809168008F5F8093680081309D
:1007400029F4EBDD82E0809368000895853074F130
:10075000F89480916A00811104C0909169009923F6
:1007600021F091E090936C0002C010926C00909187
:100770006900911109C0811107C080916B008A3016
:100780001CF48AE080936B0060916B0081E090E044
:10079000AFDD60916A0082E090E0AADD60916900BF
:1007A00083E090E0A5DD1092680078940895CF93DF
:1007B000DF9300D000D000D0CDB7DEB7DDDD24DE82
:1007C000ACDD7894CE01019676DCC8DE43DFCE0145
:0A07D0000196EDDCF7CFF894FFCF9F
:0207DA0001001C
:00000001FF
